{
  "_format": "hh-sol-artifact-1",
  "contractName": "Voting",
  "sourceName": "contracts/Voting.sol",
  "abi": [
    {
      "inputs": [
        {
          "internalType": "string[]",
          "name": "optionNames",
          "type": "string[]"
        },
        {
          "internalType": "uint256",
          "name": "_expiryDate",
          "type": "uint256"
        }
      ],
      "stateMutability": "nonpayable",
      "type": "constructor"
    },
    {
      "inputs": [],
      "name": "declareResults",
      "outputs": [],
      "stateMutability": "nonpayable",
      "type": "function"
    },
    {
      "inputs": [],
      "name": "declareResultsUsingModifier",
      "outputs": [],
      "stateMutability": "nonpayable",
      "type": "function"
    },
    {
      "inputs": [],
      "name": "expiryDate",
      "outputs": [
        {
          "internalType": "uint256",
          "name": "",
          "type": "uint256"
        }
      ],
      "stateMutability": "view",
      "type": "function"
    },
    {
      "inputs": [],
      "name": "getExpiryDate",
      "outputs": [
        {
          "internalType": "uint256",
          "name": "",
          "type": "uint256"
        }
      ],
      "stateMutability": "view",
      "type": "function"
    },
    {
      "inputs": [],
      "name": "getTotalVotes",
      "outputs": [
        {
          "internalType": "uint256",
          "name": "",
          "type": "uint256"
        }
      ],
      "stateMutability": "view",
      "type": "function"
    },
    {
      "inputs": [],
      "name": "getVotes",
      "outputs": [
        {
          "components": [
            {
              "internalType": "string",
              "name": "name",
              "type": "string"
            },
            {
              "internalType": "uint256",
              "name": "count",
              "type": "uint256"
            }
          ],
          "internalType": "struct Voting.Option[]",
          "name": "",
          "type": "tuple[]"
        }
      ],
      "stateMutability": "view",
      "type": "function"
    },
    {
      "inputs": [],
      "name": "getWinningOption",
      "outputs": [
        {
          "components": [
            {
              "internalType": "string",
              "name": "name",
              "type": "string"
            },
            {
              "internalType": "uint256",
              "name": "count",
              "type": "uint256"
            }
          ],
          "internalType": "struct Voting.Option",
          "name": "",
          "type": "tuple"
        }
      ],
      "stateMutability": "view",
      "type": "function"
    },
    {
      "inputs": [],
      "name": "resultsDeclared",
      "outputs": [
        {
          "internalType": "bool",
          "name": "",
          "type": "bool"
        }
      ],
      "stateMutability": "view",
      "type": "function"
    },
    {
      "inputs": [],
      "name": "totalVotes",
      "outputs": [
        {
          "internalType": "uint256",
          "name": "",
          "type": "uint256"
        }
      ],
      "stateMutability": "view",
      "type": "function"
    },
    {
      "inputs": [
        {
          "internalType": "uint256",
          "name": "optionIndex",
          "type": "uint256"
        }
      ],
      "name": "vote",
      "outputs": [],
      "stateMutability": "nonpayable",
      "type": "function"
    },
    {
      "inputs": [
        {
          "internalType": "address",
          "name": "",
          "type": "address"
        }
      ],
      "name": "voters",
      "outputs": [
        {
          "internalType": "bool",
          "name": "",
          "type": "bool"
        }
      ],
      "stateMutability": "view",
      "type": "function"
    },
    {
      "inputs": [
        {
          "internalType": "uint256",
          "name": "",
          "type": "uint256"
        }
      ],
      "name": "votes",
      "outputs": [
        {
          "internalType": "string",
          "name": "name",
          "type": "string"
        },
        {
          "internalType": "uint256",
          "name": "count",
          "type": "uint256"
        }
      ],
      "stateMutability": "view",
      "type": "function"
    },
    {
      "inputs": [],
      "name": "winningOption",
      "outputs": [
        {
          "internalType": "string",
          "name": "name",
          "type": "string"
        },
        {
          "internalType": "uint256",
          "name": "count",
          "type": "uint256"
        }
      ],
      "stateMutability": "view",
      "type": "function"
    }
  ],
  "bytecode": "0x60806040523480156200001157600080fd5b5060405162001c0938038062001c098339818101604052810190620000379190620003be565b60005b8251811015620000dc576004604051806040016040528085848151811062000067576200006662000424565b5b60200260200101518152602001600081525090806001815401808255809150506001900390600052602060002090600202016000909190919091506000820151816000019081620000b9919062000694565b506020820151816001015550508080620000d390620007aa565b9150506200003a565b508060058190555060006006819055505050620007f7565b6000604051905090565b600080fd5b600080fd5b600080fd5b6000601f19601f8301169050919050565b7f4e487b7100000000000000000000000000000000000000000000000000000000600052604160045260246000fd5b62000158826200010d565b810181811067ffffffffffffffff821117156200017a57620001796200011e565b5b80604052505050565b60006200018f620000f4565b90506200019d82826200014d565b919050565b600067ffffffffffffffff821115620001c057620001bf6200011e565b5b602082029050602081019050919050565b600080fd5b600080fd5b600067ffffffffffffffff821115620001f957620001f86200011e565b5b62000204826200010d565b9050602081019050919050565b60005b838110156200023157808201518184015260208101905062000214565b60008484015250505050565b6000620002546200024e84620001db565b62000183565b905082815260208101848484011115620002735762000272620001d6565b5b6200028084828562000211565b509392505050565b600082601f830112620002a0576200029f62000108565b5b8151620002b28482602086016200023d565b91505092915050565b6000620002d2620002cc84620001a2565b62000183565b90508083825260208201905060208402830185811115620002f857620002f7620001d1565b5b835b818110156200034657805167ffffffffffffffff81111562000321576200032062000108565b5b80860162000330898262000288565b85526020850194505050602081019050620002fa565b5050509392505050565b600082601f83011262000368576200036762000108565b5b81516200037a848260208601620002bb565b91505092915050565b6000819050919050565b620003988162000383565b8114620003a457600080fd5b50565b600081519050620003b8816200038d565b92915050565b60008060408385031215620003d857620003d7620000fe565b5b600083015167ffffffffffffffff811115620003f957620003f862000103565b5b620004078582860162000350565b92505060206200041a85828601620003a7565b9150509250929050565b7f4e487b7100000000000000000000000000000000000000000000000000000000600052603260045260246000fd5b600081519050919050565b7f4e487b7100000000000000000000000000000000000000000000000000000000600052602260045260246000fd5b60006002820490506001821680620004a657607f821691505b602082108103620004bc57620004bb6200045e565b5b50919050565b60008190508160005260206000209050919050565b60006020601f8301049050919050565b600082821b905092915050565b600060088302620005267fffffffffffffffffffffffffffffffffffffffffffffffffffffffffffffffff82620004e7565b620005328683620004e7565b95508019841693508086168417925050509392505050565b6000819050919050565b6000620005756200056f620005698462000383565b6200054a565b62000383565b9050919050565b6000819050919050565b620005918362000554565b620005a9620005a0826200057c565b848454620004f4565b825550505050565b600090565b620005c0620005b1565b620005cd81848462000586565b505050565b5b81811015620005f557620005e9600082620005b6565b600181019050620005d3565b5050565b601f82111562000644576200060e81620004c2565b6200061984620004d7565b8101602085101562000629578190505b620006416200063885620004d7565b830182620005d2565b50505b505050565b600082821c905092915050565b6000620006696000198460080262000649565b1980831691505092915050565b600062000684838362000656565b9150826002028217905092915050565b6200069f8262000453565b67ffffffffffffffff811115620006bb57620006ba6200011e565b5b620006c782546200048d565b620006d4828285620005f9565b600060209050601f8311600181146200070c5760008415620006f7578287015190505b62000703858262000676565b86555062000773565b601f1984166200071c86620004c2565b60005b8281101562000746578489015182556001820191506020850194506020810190506200071f565b8683101562000766578489015162000762601f89168262000656565b8355505b6001600288020188555050505b505050505050565b7f4e487b7100000000000000000000000000000000000000000000000000000000600052601160045260246000fd5b6000620007b78262000383565b91507fffffffffffffffffffffffffffffffffffffffffffffffffffffffffffffffff8203620007ec57620007eb6200077b565b5b600182019050919050565b61140280620008076000396000f3fe608060405234801561001057600080fd5b50600436106100cf5760003560e01c80635df813301161008c5780639a0e7d66116100665780639a0e7d66146101df5780639fde4ef8146101fd578063a3ec138d1461021c578063b367c5c41461024c576100cf565b80635df81330146101725780637eeb4520146101a3578063965473bd146101c1576100cf565b80630121b93f146100d45780630248a341146100f05780630d15fd77146100fa5780630dc96015146101185780632d8ed84a14610136578063516dde4314610154575b600080fd5b6100ee60048036038101906100e991906109fa565b610256565b005b6100f861041b565b005b6101026104d2565b60405161010f9190610a36565b60405180910390f35b6101206104d8565b60405161012d9190610bef565b60405180910390f35b61013e6105d3565b60405161014b9190610a36565b60405180910390f35b61015c6105dd565b6040516101699190610a36565b60405180910390f35b61018c600480360381019061018791906109fa565b6105e3565b60405161019a929190610c5b565b60405180910390f35b6101ab61069f565b6040516101b89190610cc8565b60405180910390f35b6101c9610755565b6040516101d69190610d05565b60405180910390f35b6101e7610766565b6040516101f49190610a36565b60405180910390f35b610205610770565b604051610213929190610c5b565b60405180910390f35b61023660048036038101906102319190610d7e565b61080a565b6040516102439190610d05565b60405180910390f35b61025461082a565b005b600554421061029a576040517f08c379a000000000000000000000000000000000000000000000000000000000815260040161029190610df7565b60405180910390fd5b600160003373ffffffffffffffffffffffffffffffffffffffff1673ffffffffffffffffffffffffffffffffffffffff16815260200190815260200160002060009054906101000a900460ff1615610327576040517f08c379a000000000000000000000000000000000000000000000000000000000815260040161031e90610e63565b60405180910390fd5b600480549050811061036e576040517f08c379a000000000000000000000000000000000000000000000000000000000815260040161036590610ecf565b60405180910390fd5b6004818154811061038257610381610eef565b5b906000526020600020906002020160010160008154809291906103a490610f4d565b9190505550600660008154809291906103bc90610f4d565b919050555060018060003373ffffffffffffffffffffffffffffffffffffffff1673ffffffffffffffffffffffffffffffffffffffff16815260200190815260200160002060006101000a81548160ff02191690831515021790555050565b600554421015610460576040517f08c379a000000000000000000000000000000000000000000000000000000000815260040161045790610fe1565b60405180910390fd5b60008054906101000a900460ff16156104ae576040517f08c379a00000000000000000000000000000000000000000000000000000000081526004016104a590611073565b60405180910390fd5b60016000806101000a81548160ff0219169083151502179055506104d06108e1565b565b60065481565b60606004805480602002602001604051908101604052809291908181526020016000905b828210156105ca578382906000526020600020906002020160405180604001604052908160008201805461052f906110c2565b80601f016020809104026020016040519081016040528092919081815260200182805461055b906110c2565b80156105a85780601f1061057d576101008083540402835291602001916105a8565b820191906000526020600020905b81548152906001019060200180831161058b57829003601f168201915b50505050508152602001600182015481525050815260200190600101906104fc565b50505050905090565b6000600554905090565b60055481565b600481815481106105f357600080fd5b9060005260206000209060020201600091509050806000018054610616906110c2565b80601f0160208091040260200160405190810160405280929190818152602001828054610642906110c2565b801561068f5780601f106106645761010080835404028352916020019161068f565b820191906000526020600020905b81548152906001019060200180831161067257829003601f168201915b5050505050908060010154905082565b6106a76109a5565b60026040518060400160405290816000820180546106c4906110c2565b80601f01602080910402602001604051908101604052809291908181526020018280546106f0906110c2565b801561073d5780601f106107125761010080835404028352916020019161073d565b820191906000526020600020905b81548152906001019060200180831161072057829003601f168201915b50505050508152602001600182015481525050905090565b60008054906101000a900460ff1681565b6000600654905090565b6002806000018054610781906110c2565b80601f01602080910402602001604051908101604052809291908181526020018280546107ad906110c2565b80156107fa5780601f106107cf576101008083540402835291602001916107fa565b820191906000526020600020905b8154815290600101906020018083116107dd57829003601f168201915b5050505050908060010154905082565b60016020528060005260406000206000915054906101000a900460ff1681565b60055442101561086f576040517f08c379a000000000000000000000000000000000000000000000000000000000815260040161086690610fe1565b60405180910390fd5b60008054906101000a900460ff16156108bd576040517f08c379a00000000000000000000000000000000000000000000000000000000081526004016108b490611073565b60405180910390fd5b60016000806101000a81548160ff0219169083151502179055506108df6108e1565b565b6000805b6004805490508110156109a157816004828154811061090757610906610eef565b5b906000526020600020906002020160010154111561098e576004818154811061093357610932610eef565b5b90600052602060002090600202016001015491506004818154811061095b5761095a610eef565b5b906000526020600020906002020160026000820181600001908161097f91906112e4565b50600182015481600101559050505b808061099990610f4d565b9150506108e5565b5050565b604051806040016040528060608152602001600081525090565b600080fd5b6000819050919050565b6109d7816109c4565b81146109e257600080fd5b50565b6000813590506109f4816109ce565b92915050565b600060208284031215610a1057610a0f6109bf565b5b6000610a1e848285016109e5565b91505092915050565b610a30816109c4565b82525050565b6000602082019050610a4b6000830184610a27565b92915050565b600081519050919050565b600082825260208201905092915050565b6000819050602082019050919050565b600081519050919050565b600082825260208201905092915050565b60005b83811015610ab7578082015181840152602081019050610a9c565b60008484015250505050565b6000601f19601f8301169050919050565b6000610adf82610a7d565b610ae98185610a88565b9350610af9818560208601610a99565b610b0281610ac3565b840191505092915050565b610b16816109c4565b82525050565b60006040830160008301518482036000860152610b398282610ad4565b9150506020830151610b4e6020860182610b0d565b508091505092915050565b6000610b658383610b1c565b905092915050565b6000602082019050919050565b6000610b8582610a51565b610b8f8185610a5c565b935083602082028501610ba185610a6d565b8060005b85811015610bdd5784840389528151610bbe8582610b59565b9450610bc983610b6d565b925060208a01995050600181019050610ba5565b50829750879550505050505092915050565b60006020820190508181036000830152610c098184610b7a565b905092915050565b600082825260208201905092915050565b6000610c2d82610a7d565b610c378185610c11565b9350610c47818560208601610a99565b610c5081610ac3565b840191505092915050565b60006040820190508181036000830152610c758185610c22565b9050610c846020830184610a27565b9392505050565b60006040830160008301518482036000860152610ca88282610ad4565b9150506020830151610cbd6020860182610b0d565b508091505092915050565b60006020820190508181036000830152610ce28184610c8b565b905092915050565b60008115159050919050565b610cff81610cea565b82525050565b6000602082019050610d1a6000830184610cf6565b92915050565b600073ffffffffffffffffffffffffffffffffffffffff82169050919050565b6000610d4b82610d20565b9050919050565b610d5b81610d40565b8114610d6657600080fd5b50565b600081359050610d7881610d52565b92915050565b600060208284031215610d9457610d936109bf565b5b6000610da284828501610d69565b91505092915050565b7f566f74696e672068617320657870697265640000000000000000000000000000600082015250565b6000610de1601283610c11565b9150610dec82610dab565b602082019050919050565b60006020820190508181036000830152610e1081610dd4565b9050919050565b7f596f75206861766520616c726561647920766f74656400000000000000000000600082015250565b6000610e4d601683610c11565b9150610e5882610e17565b602082019050919050565b60006020820190508181036000830152610e7c81610e40565b9050919050565b7f496e76616c6964206f7074696f6e20696e646578000000000000000000000000600082015250565b6000610eb9601483610c11565b9150610ec482610e83565b602082019050919050565b60006020820190508181036000830152610ee881610eac565b9050919050565b7f4e487b7100000000000000000000000000000000000000000000000000000000600052603260045260246000fd5b7f4e487b7100000000000000000000000000000000000000000000000000000000600052601160045260246000fd5b6000610f58826109c4565b91507fffffffffffffffffffffffffffffffffffffffffffffffffffffffffffffffff8203610f8a57610f89610f1e565b5b600182019050919050565b7f566f74696e67206973207374696c6c206f6e676f696e67000000000000000000600082015250565b6000610fcb601783610c11565b9150610fd682610f95565b602082019050919050565b60006020820190508181036000830152610ffa81610fbe565b9050919050565b7f526573756c7473206861766520616c7265616479206265656e206465636c617260008201527f6564000000000000000000000000000000000000000000000000000000000000602082015250565b600061105d602283610c11565b915061106882611001565b604082019050919050565b6000602082019050818103600083015261108c81611050565b9050919050565b7f4e487b7100000000000000000000000000000000000000000000000000000000600052602260045260246000fd5b600060028204905060018216806110da57607f821691505b6020821081036110ed576110ec611093565b5b50919050565b600081549050611102816110c2565b9050919050565b7f4e487b7100000000000000000000000000000000000000000000000000000000600052604160045260246000fd5b60008190508160005260206000209050919050565b60006020601f8301049050919050565b600082821b905092915050565b60006008830261119a7fffffffffffffffffffffffffffffffffffffffffffffffffffffffffffffffff8261115d565b6111a4868361115d565b95508019841693508086168417925050509392505050565b6000819050919050565b60006111e16111dc6111d7846109c4565b6111bc565b6109c4565b9050919050565b6000819050919050565b6111fb836111c6565b61120f611207826111e8565b84845461116a565b825550505050565b600090565b611224611217565b61122f8184846111f2565b505050565b5b818110156112535761124860008261121c565b600181019050611235565b5050565b601f8211156112985761126981611138565b6112728461114d565b81016020851015611281578190505b61129561128d8561114d565b830182611234565b50505b505050565b600082821c905092915050565b60006112bb6000198460080261129d565b1980831691505092915050565b60006112d483836112aa565b9150826002028217905092915050565b8181036112f25750506113ca565b6112fb826110f3565b67ffffffffffffffff81111561131457611313611109565b5b61131e82546110c2565b611329828285611257565b6000601f8311600181146113585760008415611346578287015490505b61135085826112c8565b8655506113c3565b601f19841661136687611138565b965061137186611138565b60005b8281101561139957848901548255600182019150600185019450602081019050611374565b868310156113b657848901546113b2601f8916826112aa565b8355505b6001600288020188555050505b5050505050505b56fea26469706673582212200c3c1e1d3d816ea7f7c34d55ed4496c1ec2bcee15b8f1985051f350024e2230264736f6c63430008120033",
  "linkReferences": {},
  "deployedLinkReferences": {}
}