{
  "_format": "hh-sol-artifact-1",
  "contractName": "Voting",
  "sourceName": "contracts/Voting.sol",
  "abi": [
    {
      "inputs": [
        {
          "internalType": "string[]",
          "name": "optionNames",
          "type": "string[]"
        },
        {
          "internalType": "uint256",
          "name": "_expiryDate",
          "type": "uint256"
        }
      ],
      "stateMutability": "nonpayable",
      "type": "constructor"
    },
    {
      "inputs": [],
      "name": "declareResults",
      "outputs": [],
      "stateMutability": "nonpayable",
      "type": "function"
    },
    {
      "inputs": [],
      "name": "declareResultsUsingModifier",
      "outputs": [],
      "stateMutability": "nonpayable",
      "type": "function"
    },
    {
      "inputs": [],
      "name": "expiryDate",
      "outputs": [
        {
          "internalType": "uint256",
          "name": "",
          "type": "uint256"
        }
      ],
      "stateMutability": "view",
      "type": "function"
    },
    {
      "inputs": [],
      "name": "getExpiryDate",
      "outputs": [
        {
          "internalType": "uint256",
          "name": "",
          "type": "uint256"
        }
      ],
      "stateMutability": "view",
      "type": "function"
    },
    {
      "inputs": [],
      "name": "getTotalVotes",
      "outputs": [
        {
          "internalType": "uint256",
          "name": "",
          "type": "uint256"
        }
      ],
      "stateMutability": "view",
      "type": "function"
    },
    {
      "inputs": [],
      "name": "getVotes",
      "outputs": [
        {
          "components": [
            {
              "internalType": "string",
              "name": "name",
              "type": "string"
            },
            {
              "internalType": "uint256",
              "name": "count",
              "type": "uint256"
            }
          ],
          "internalType": "struct Voting.Option[]",
          "name": "",
          "type": "tuple[]"
        }
      ],
      "stateMutability": "view",
      "type": "function"
    },
    {
      "inputs": [],
      "name": "resultsDeclared",
      "outputs": [
        {
          "internalType": "bool",
          "name": "",
          "type": "bool"
        }
      ],
      "stateMutability": "view",
      "type": "function"
    },
    {
      "inputs": [],
      "name": "totalVotes",
      "outputs": [
        {
          "internalType": "uint256",
          "name": "",
          "type": "uint256"
        }
      ],
      "stateMutability": "view",
      "type": "function"
    },
    {
      "inputs": [
        {
          "internalType": "uint256",
          "name": "optionIndex",
          "type": "uint256"
        }
      ],
      "name": "vote",
      "outputs": [],
      "stateMutability": "nonpayable",
      "type": "function"
    },
    {
      "inputs": [
        {
          "internalType": "address",
          "name": "",
          "type": "address"
        }
      ],
      "name": "voters",
      "outputs": [
        {
          "internalType": "bool",
          "name": "",
          "type": "bool"
        }
      ],
      "stateMutability": "view",
      "type": "function"
    },
    {
      "inputs": [
        {
          "internalType": "uint256",
          "name": "",
          "type": "uint256"
        }
      ],
      "name": "votes",
      "outputs": [
        {
          "internalType": "string",
          "name": "name",
          "type": "string"
        },
        {
          "internalType": "uint256",
          "name": "count",
          "type": "uint256"
        }
      ],
      "stateMutability": "view",
      "type": "function"
    },
    {
      "inputs": [],
      "name": "winningOption",
      "outputs": [
        {
          "internalType": "string",
          "name": "name",
          "type": "string"
        },
        {
          "internalType": "uint256",
          "name": "count",
          "type": "uint256"
        }
      ],
      "stateMutability": "view",
      "type": "function"
    }
  ],
  "bytecode": "0x60806040523480156200001157600080fd5b5060405162001aa138038062001aa18339818101604052810190620000379190620003be565b60005b8251811015620000dc576004604051806040016040528085848151811062000067576200006662000424565b5b60200260200101518152602001600081525090806001815401808255809150506001900390600052602060002090600202016000909190919091506000820151816000019081620000b9919062000694565b506020820151816001015550508080620000d390620007aa565b9150506200003a565b508060058190555060006006819055505050620007f7565b6000604051905090565b600080fd5b600080fd5b600080fd5b6000601f19601f8301169050919050565b7f4e487b7100000000000000000000000000000000000000000000000000000000600052604160045260246000fd5b62000158826200010d565b810181811067ffffffffffffffff821117156200017a57620001796200011e565b5b80604052505050565b60006200018f620000f4565b90506200019d82826200014d565b919050565b600067ffffffffffffffff821115620001c057620001bf6200011e565b5b602082029050602081019050919050565b600080fd5b600080fd5b600067ffffffffffffffff821115620001f957620001f86200011e565b5b62000204826200010d565b9050602081019050919050565b60005b838110156200023157808201518184015260208101905062000214565b60008484015250505050565b6000620002546200024e84620001db565b62000183565b905082815260208101848484011115620002735762000272620001d6565b5b6200028084828562000211565b509392505050565b600082601f830112620002a0576200029f62000108565b5b8151620002b28482602086016200023d565b91505092915050565b6000620002d2620002cc84620001a2565b62000183565b90508083825260208201905060208402830185811115620002f857620002f7620001d1565b5b835b818110156200034657805167ffffffffffffffff81111562000321576200032062000108565b5b80860162000330898262000288565b85526020850194505050602081019050620002fa565b5050509392505050565b600082601f83011262000368576200036762000108565b5b81516200037a848260208601620002bb565b91505092915050565b6000819050919050565b620003988162000383565b8114620003a457600080fd5b50565b600081519050620003b8816200038d565b92915050565b60008060408385031215620003d857620003d7620000fe565b5b600083015167ffffffffffffffff811115620003f957620003f862000103565b5b620004078582860162000350565b92505060206200041a85828601620003a7565b9150509250929050565b7f4e487b7100000000000000000000000000000000000000000000000000000000600052603260045260246000fd5b600081519050919050565b7f4e487b7100000000000000000000000000000000000000000000000000000000600052602260045260246000fd5b60006002820490506001821680620004a657607f821691505b602082108103620004bc57620004bb6200045e565b5b50919050565b60008190508160005260206000209050919050565b60006020601f8301049050919050565b600082821b905092915050565b600060088302620005267fffffffffffffffffffffffffffffffffffffffffffffffffffffffffffffffff82620004e7565b620005328683620004e7565b95508019841693508086168417925050509392505050565b6000819050919050565b6000620005756200056f620005698462000383565b6200054a565b62000383565b9050919050565b6000819050919050565b620005918362000554565b620005a9620005a0826200057c565b848454620004f4565b825550505050565b600090565b620005c0620005b1565b620005cd81848462000586565b505050565b5b81811015620005f557620005e9600082620005b6565b600181019050620005d3565b5050565b601f82111562000644576200060e81620004c2565b6200061984620004d7565b8101602085101562000629578190505b620006416200063885620004d7565b830182620005d2565b50505b505050565b600082821c905092915050565b6000620006696000198460080262000649565b1980831691505092915050565b600062000684838362000656565b9150826002028217905092915050565b6200069f8262000453565b67ffffffffffffffff811115620006bb57620006ba6200011e565b5b620006c782546200048d565b620006d4828285620005f9565b600060209050601f8311600181146200070c5760008415620006f7578287015190505b62000703858262000676565b86555062000773565b601f1984166200071c86620004c2565b60005b8281101562000746578489015182556001820191506020850194506020810190506200071f565b8683101562000766578489015162000762601f89168262000656565b8355505b6001600288020188555050505b505050505050565b7f4e487b7100000000000000000000000000000000000000000000000000000000600052601160045260246000fd5b6000620007b78262000383565b91507fffffffffffffffffffffffffffffffffffffffffffffffffffffffffffffffff8203620007ec57620007eb6200077b565b5b600182019050919050565b61129a80620008076000396000f3fe608060405234801561001057600080fd5b50600436106100b45760003560e01c80635df81330116100715780635df8133014610157578063965473bd146101885780639a0e7d66146101a65780639fde4ef8146101c4578063a3ec138d146101e3578063b367c5c414610213576100b4565b80630121b93f146100b95780630248a341146100d55780630d15fd77146100df5780630dc96015146100fd5780632d8ed84a1461011b578063516dde4314610139575b600080fd5b6100d360048036038101906100ce91906108f1565b61021d565b005b6100dd6103e2565b005b6100e7610499565b6040516100f4919061092d565b60405180910390f35b61010561049f565b6040516101129190610ae6565b60405180910390f35b61012361059a565b604051610130919061092d565b60405180910390f35b6101416105a4565b60405161014e919061092d565b60405180910390f35b610171600480360381019061016c91906108f1565b6105aa565b60405161017f929190610b52565b60405180910390f35b610190610666565b60405161019d9190610b9d565b60405180910390f35b6101ae610677565b6040516101bb919061092d565b60405180910390f35b6101cc610681565b6040516101da929190610b52565b60405180910390f35b6101fd60048036038101906101f89190610c16565b61071b565b60405161020a9190610b9d565b60405180910390f35b61021b61073b565b005b6005544210610261576040517f08c379a000000000000000000000000000000000000000000000000000000000815260040161025890610c8f565b60405180910390fd5b600160003373ffffffffffffffffffffffffffffffffffffffff1673ffffffffffffffffffffffffffffffffffffffff16815260200190815260200160002060009054906101000a900460ff16156102ee576040517f08c379a00000000000000000000000000000000000000000000000000000000081526004016102e590610cfb565b60405180910390fd5b6004805490508110610335576040517f08c379a000000000000000000000000000000000000000000000000000000000815260040161032c90610d67565b60405180910390fd5b6004818154811061034957610348610d87565b5b9060005260206000209060020201600101600081548092919061036b90610de5565b91905055506006600081548092919061038390610de5565b919050555060018060003373ffffffffffffffffffffffffffffffffffffffff1673ffffffffffffffffffffffffffffffffffffffff16815260200190815260200160002060006101000a81548160ff02191690831515021790555050565b600554421015610427576040517f08c379a000000000000000000000000000000000000000000000000000000000815260040161041e90610e79565b60405180910390fd5b60008054906101000a900460ff1615610475576040517f08c379a000000000000000000000000000000000000000000000000000000000815260040161046c90610f0b565b60405180910390fd5b60016000806101000a81548160ff0219169083151502179055506104976107f2565b565b60065481565b60606004805480602002602001604051908101604052809291908181526020016000905b8282101561059157838290600052602060002090600202016040518060400160405290816000820180546104f690610f5a565b80601f016020809104026020016040519081016040528092919081815260200182805461052290610f5a565b801561056f5780601f106105445761010080835404028352916020019161056f565b820191906000526020600020905b81548152906001019060200180831161055257829003601f168201915b50505050508152602001600182015481525050815260200190600101906104c3565b50505050905090565b6000600554905090565b60055481565b600481815481106105ba57600080fd5b90600052602060002090600202016000915090508060000180546105dd90610f5a565b80601f016020809104026020016040519081016040528092919081815260200182805461060990610f5a565b80156106565780601f1061062b57610100808354040283529160200191610656565b820191906000526020600020905b81548152906001019060200180831161063957829003601f168201915b5050505050908060010154905082565b60008054906101000a900460ff1681565b6000600654905090565b600280600001805461069290610f5a565b80601f01602080910402602001604051908101604052809291908181526020018280546106be90610f5a565b801561070b5780601f106106e05761010080835404028352916020019161070b565b820191906000526020600020905b8154815290600101906020018083116106ee57829003601f168201915b5050505050908060010154905082565b60016020528060005260406000206000915054906101000a900460ff1681565b600554421015610780576040517f08c379a000000000000000000000000000000000000000000000000000000000815260040161077790610e79565b60405180910390fd5b60008054906101000a900460ff16156107ce576040517f08c379a00000000000000000000000000000000000000000000000000000000081526004016107c590610f0b565b60405180910390fd5b60016000806101000a81548160ff0219169083151502179055506107f06107f2565b565b6000805b6004805490508110156108b257816004828154811061081857610817610d87565b5b906000526020600020906002020160010154111561089f576004818154811061084457610843610d87565b5b90600052602060002090600202016001015491506004818154811061086c5761086b610d87565b5b9060005260206000209060020201600260008201816000019081610890919061117c565b50600182015481600101559050505b80806108aa90610de5565b9150506107f6565b5050565b600080fd5b6000819050919050565b6108ce816108bb565b81146108d957600080fd5b50565b6000813590506108eb816108c5565b92915050565b600060208284031215610907576109066108b6565b5b6000610915848285016108dc565b91505092915050565b610927816108bb565b82525050565b6000602082019050610942600083018461091e565b92915050565b600081519050919050565b600082825260208201905092915050565b6000819050602082019050919050565b600081519050919050565b600082825260208201905092915050565b60005b838110156109ae578082015181840152602081019050610993565b60008484015250505050565b6000601f19601f8301169050919050565b60006109d682610974565b6109e0818561097f565b93506109f0818560208601610990565b6109f9816109ba565b840191505092915050565b610a0d816108bb565b82525050565b60006040830160008301518482036000860152610a3082826109cb565b9150506020830151610a456020860182610a04565b508091505092915050565b6000610a5c8383610a13565b905092915050565b6000602082019050919050565b6000610a7c82610948565b610a868185610953565b935083602082028501610a9885610964565b8060005b85811015610ad45784840389528151610ab58582610a50565b9450610ac083610a64565b925060208a01995050600181019050610a9c565b50829750879550505050505092915050565b60006020820190508181036000830152610b008184610a71565b905092915050565b600082825260208201905092915050565b6000610b2482610974565b610b2e8185610b08565b9350610b3e818560208601610990565b610b47816109ba565b840191505092915050565b60006040820190508181036000830152610b6c8185610b19565b9050610b7b602083018461091e565b9392505050565b60008115159050919050565b610b9781610b82565b82525050565b6000602082019050610bb26000830184610b8e565b92915050565b600073ffffffffffffffffffffffffffffffffffffffff82169050919050565b6000610be382610bb8565b9050919050565b610bf381610bd8565b8114610bfe57600080fd5b50565b600081359050610c1081610bea565b92915050565b600060208284031215610c2c57610c2b6108b6565b5b6000610c3a84828501610c01565b91505092915050565b7f566f74696e672068617320657870697265640000000000000000000000000000600082015250565b6000610c79601283610b08565b9150610c8482610c43565b602082019050919050565b60006020820190508181036000830152610ca881610c6c565b9050919050565b7f596f75206861766520616c726561647920766f74656400000000000000000000600082015250565b6000610ce5601683610b08565b9150610cf082610caf565b602082019050919050565b60006020820190508181036000830152610d1481610cd8565b9050919050565b7f496e76616c6964206f7074696f6e20696e646578000000000000000000000000600082015250565b6000610d51601483610b08565b9150610d5c82610d1b565b602082019050919050565b60006020820190508181036000830152610d8081610d44565b9050919050565b7f4e487b7100000000000000000000000000000000000000000000000000000000600052603260045260246000fd5b7f4e487b7100000000000000000000000000000000000000000000000000000000600052601160045260246000fd5b6000610df0826108bb565b91507fffffffffffffffffffffffffffffffffffffffffffffffffffffffffffffffff8203610e2257610e21610db6565b5b600182019050919050565b7f566f74696e67206973207374696c6c206f6e676f696e67000000000000000000600082015250565b6000610e63601783610b08565b9150610e6e82610e2d565b602082019050919050565b60006020820190508181036000830152610e9281610e56565b9050919050565b7f526573756c7473206861766520616c7265616479206265656e206465636c617260008201527f6564000000000000000000000000000000000000000000000000000000000000602082015250565b6000610ef5602283610b08565b9150610f0082610e99565b604082019050919050565b60006020820190508181036000830152610f2481610ee8565b9050919050565b7f4e487b7100000000000000000000000000000000000000000000000000000000600052602260045260246000fd5b60006002820490506001821680610f7257607f821691505b602082108103610f8557610f84610f2b565b5b50919050565b600081549050610f9a81610f5a565b9050919050565b7f4e487b7100000000000000000000000000000000000000000000000000000000600052604160045260246000fd5b60008190508160005260206000209050919050565b60006020601f8301049050919050565b600082821b905092915050565b6000600883026110327fffffffffffffffffffffffffffffffffffffffffffffffffffffffffffffffff82610ff5565b61103c8683610ff5565b95508019841693508086168417925050509392505050565b6000819050919050565b600061107961107461106f846108bb565b611054565b6108bb565b9050919050565b6000819050919050565b6110938361105e565b6110a761109f82611080565b848454611002565b825550505050565b600090565b6110bc6110af565b6110c781848461108a565b505050565b5b818110156110eb576110e06000826110b4565b6001810190506110cd565b5050565b601f8211156111305761110181610fd0565b61110a84610fe5565b81016020851015611119578190505b61112d61112585610fe5565b8301826110cc565b50505b505050565b600082821c905092915050565b600061115360001984600802611135565b1980831691505092915050565b600061116c8383611142565b9150826002028217905092915050565b81810361118a575050611262565b61119382610f8b565b67ffffffffffffffff8111156111ac576111ab610fa1565b5b6111b68254610f5a565b6111c18282856110ef565b6000601f8311600181146111f057600084156111de578287015490505b6111e88582611160565b86555061125b565b601f1984166111fe87610fd0565b965061120986610fd0565b60005b828110156112315784890154825560018201915060018501945060208101905061120c565b8683101561124e578489015461124a601f891682611142565b8355505b6001600288020188555050505b5050505050505b56fea26469706673582212204e1990e5b3b144005175a548a50c0752b51c3f08cf51dfec8c39f73d00ed80e664736f6c63430008120033",
  "linkReferences": {},
  "deployedLinkReferences": {}
}