{
  "_format": "hh-sol-artifact-1",
  "contractName": "Voting",
  "sourceName": "contracts/Voting.sol",
  "abi": [
    {
      "inputs": [
        {
          "internalType": "string[]",
          "name": "optionNames",
          "type": "string[]"
        }
      ],
      "stateMutability": "nonpayable",
      "type": "constructor"
    },
    {
      "inputs": [
        {
          "internalType": "uint256",
          "name": "optionIndex",
          "type": "uint256"
        }
      ],
      "name": "getOptionNameByIndex",
      "outputs": [
        {
          "internalType": "string",
          "name": "",
          "type": "string"
        }
      ],
      "stateMutability": "view",
      "type": "function"
    },
    {
      "inputs": [],
      "name": "getOptionsNames",
      "outputs": [
        {
          "internalType": "string[]",
          "name": "",
          "type": "string[]"
        }
      ],
      "stateMutability": "view",
      "type": "function"
    },
    {
      "inputs": [],
      "name": "getTotalVotes",
      "outputs": [
        {
          "internalType": "uint256",
          "name": "",
          "type": "uint256"
        }
      ],
      "stateMutability": "view",
      "type": "function"
    },
    {
      "inputs": [
        {
          "internalType": "uint256",
          "name": "optionId",
          "type": "uint256"
        }
      ],
      "name": "getTotalVotesById",
      "outputs": [
        {
          "internalType": "uint256",
          "name": "",
          "type": "uint256"
        }
      ],
      "stateMutability": "view",
      "type": "function"
    },
    {
      "inputs": [],
      "name": "getTotalVotesByOption",
      "outputs": [
        {
          "components": [
            {
              "internalType": "string",
              "name": "name",
              "type": "string"
            },
            {
              "internalType": "uint256",
              "name": "count",
              "type": "uint256"
            }
          ],
          "internalType": "struct Voting.Option[]",
          "name": "",
          "type": "tuple[]"
        }
      ],
      "stateMutability": "view",
      "type": "function"
    },
    {
      "inputs": [],
      "name": "getWinningOption",
      "outputs": [
        {
          "components": [
            {
              "internalType": "string",
              "name": "name",
              "type": "string"
            },
            {
              "internalType": "uint256",
              "name": "count",
              "type": "uint256"
            }
          ],
          "internalType": "struct Voting.Option",
          "name": "",
          "type": "tuple"
        }
      ],
      "stateMutability": "view",
      "type": "function"
    },
    {
      "inputs": [
        {
          "internalType": "uint256",
          "name": "",
          "type": "uint256"
        }
      ],
      "name": "options",
      "outputs": [
        {
          "internalType": "string",
          "name": "name",
          "type": "string"
        },
        {
          "internalType": "uint256",
          "name": "count",
          "type": "uint256"
        }
      ],
      "stateMutability": "view",
      "type": "function"
    },
    {
      "inputs": [
        {
          "internalType": "uint256",
          "name": "optionIndex",
          "type": "uint256"
        }
      ],
      "name": "vote",
      "outputs": [],
      "stateMutability": "nonpayable",
      "type": "function"
    },
    {
      "inputs": [
        {
          "internalType": "address",
          "name": "",
          "type": "address"
        }
      ],
      "name": "voters",
      "outputs": [
        {
          "internalType": "bool",
          "name": "",
          "type": "bool"
        }
      ],
      "stateMutability": "view",
      "type": "function"
    }
  ],
  "bytecode": "0x60806040523480156200001157600080fd5b50604051620018fb380380620018fb833981810160405281019062000037919062000373565b60005b8151811015620000dc5760006040518060400160405280848481518110620000675762000066620003c4565b5b60200260200101518152602001600081525090806001815401808255809150506001900390600052602060002090600202016000909190919091506000820151816000019081620000b991906200063e565b506020820151816001015550508080620000d39062000754565b9150506200003a565b5050620007a1565b6000604051905090565b600080fd5b600080fd5b600080fd5b6000601f19601f8301169050919050565b7f4e487b7100000000000000000000000000000000000000000000000000000000600052604160045260246000fd5b6200014882620000fd565b810181811067ffffffffffffffff821117156200016a57620001696200010e565b5b80604052505050565b60006200017f620000e4565b90506200018d82826200013d565b919050565b600067ffffffffffffffff821115620001b057620001af6200010e565b5b602082029050602081019050919050565b600080fd5b600080fd5b600067ffffffffffffffff821115620001e957620001e86200010e565b5b620001f482620000fd565b9050602081019050919050565b60005b838110156200022157808201518184015260208101905062000204565b60008484015250505050565b6000620002446200023e84620001cb565b62000173565b905082815260208101848484011115620002635762000262620001c6565b5b6200027084828562000201565b509392505050565b600082601f83011262000290576200028f620000f8565b5b8151620002a28482602086016200022d565b91505092915050565b6000620002c2620002bc8462000192565b62000173565b90508083825260208201905060208402830185811115620002e857620002e7620001c1565b5b835b818110156200033657805167ffffffffffffffff811115620003115762000310620000f8565b5b80860162000320898262000278565b85526020850194505050602081019050620002ea565b5050509392505050565b600082601f830112620003585762000357620000f8565b5b81516200036a848260208601620002ab565b91505092915050565b6000602082840312156200038c576200038b620000ee565b5b600082015167ffffffffffffffff811115620003ad57620003ac620000f3565b5b620003bb8482850162000340565b91505092915050565b7f4e487b7100000000000000000000000000000000000000000000000000000000600052603260045260246000fd5b600081519050919050565b7f4e487b7100000000000000000000000000000000000000000000000000000000600052602260045260246000fd5b600060028204905060018216806200044657607f821691505b6020821081036200045c576200045b620003fe565b5b50919050565b60008190508160005260206000209050919050565b60006020601f8301049050919050565b600082821b905092915050565b600060088302620004c67fffffffffffffffffffffffffffffffffffffffffffffffffffffffffffffffff8262000487565b620004d2868362000487565b95508019841693508086168417925050509392505050565b6000819050919050565b6000819050919050565b60006200051f620005196200051384620004ea565b620004f4565b620004ea565b9050919050565b6000819050919050565b6200053b83620004fe565b620005536200054a8262000526565b84845462000494565b825550505050565b600090565b6200056a6200055b565b6200057781848462000530565b505050565b5b818110156200059f576200059360008262000560565b6001810190506200057d565b5050565b601f821115620005ee57620005b88162000462565b620005c38462000477565b81016020851015620005d3578190505b620005eb620005e28562000477565b8301826200057c565b50505b505050565b600082821c905092915050565b60006200061360001984600802620005f3565b1980831691505092915050565b60006200062e838362000600565b9150826002028217905092915050565b6200064982620003f3565b67ffffffffffffffff8111156200066557620006646200010e565b5b6200067182546200042d565b6200067e828285620005a3565b600060209050601f831160018114620006b65760008415620006a1578287015190505b620006ad858262000620565b8655506200071d565b601f198416620006c68662000462565b60005b82811015620006f057848901518255600182019150602085019450602081019050620006c9565b868310156200071057848901516200070c601f89168262000600565b8355505b6001600288020188555050505b505050505050565b7f4e487b7100000000000000000000000000000000000000000000000000000000600052601160045260246000fd5b60006200076182620004ea565b91507fffffffffffffffffffffffffffffffffffffffffffffffffffffffffffffffff820362000796576200079562000725565b5b600182019050919050565b61114a80620007b16000396000f3fe608060405234801561001057600080fd5b50600436106100935760003560e01c80634cf84a2f116100665780634cf84a2f146101215780637eeb452014610151578063975aeaab1461016f5780639a0e7d661461019f578063a3ec138d146101bd57610093565b80630121b93f146100985780630a63b90a146100b4578063359da565146100d2578063409e2205146100f0575b600080fd5b6100b260048036038101906100ad9190610a1c565b6101ed565b005b6100bc610356565b6040516100c99190610be7565b60405180910390f35b6100da610451565b6040516100e79190610ccb565b60405180910390f35b61010a60048036038101906101059190610a1c565b6105a0565b604051610118929190610d46565b60405180910390f35b61013b60048036038101906101369190610a1c565b61065c565b6040516101489190610d76565b60405180910390f35b61015961068a565b6040516101669190610dce565b60405180910390f35b61018960048036038101906101849190610a1c565b61088b565b6040516101969190610df0565b60405180910390f35b6101a7610942565b6040516101b49190610d76565b60405180910390f35b6101d760048036038101906101d29190610e70565b6109a7565b6040516101e49190610eb8565b60405180910390f35b600160003373ffffffffffffffffffffffffffffffffffffffff1673ffffffffffffffffffffffffffffffffffffffff16815260200190815260200160002060009054906101000a900460ff161561027a576040517f08c379a000000000000000000000000000000000000000000000000000000000815260040161027190610f1f565b60405180910390fd5b60008054905081106102c1576040517f08c379a00000000000000000000000000000000000000000000000000000000081526004016102b890610f8b565b60405180910390fd5b600081815481106102d5576102d4610fab565b5b906000526020600020906002020160010160008154809291906102f790611009565b919050555060018060003373ffffffffffffffffffffffffffffffffffffffff1673ffffffffffffffffffffffffffffffffffffffff16815260200190815260200160002060006101000a81548160ff02191690831515021790555050565b60606000805480602002602001604051908101604052809291908181526020016000905b8282101561044857838290600052602060002090600202016040518060400160405290816000820180546103ad90611080565b80601f01602080910402602001604051908101604052809291908181526020018280546103d990611080565b80156104265780601f106103fb57610100808354040283529160200191610426565b820191906000526020600020905b81548152906001019060200180831161040957829003601f168201915b505050505081526020016001820154815250508152602001906001019061037a565b50505050905090565b60606000808054905067ffffffffffffffff811115610473576104726110b1565b5b6040519080825280602002602001820160405280156104a657816020015b60608152602001906001900390816104915790505b50905060005b60008054905081101561059857600081815481106104cd576104cc610fab565b5b906000526020600020906002020160000180546104e990611080565b80601f016020809104026020016040519081016040528092919081815260200182805461051590611080565b80156105625780601f1061053757610100808354040283529160200191610562565b820191906000526020600020905b81548152906001019060200180831161054557829003601f168201915b505050505082828151811061057a57610579610fab565b5b6020026020010181905250808061059090611009565b9150506104ac565b508091505090565b600081815481106105b057600080fd5b90600052602060002090600202016000915090508060000180546105d390611080565b80601f01602080910402602001604051908101604052809291908181526020018280546105ff90611080565b801561064c5780601f106106215761010080835404028352916020019161064c565b820191906000526020600020905b81548152906001019060200180831161062f57829003601f168201915b5050505050908060010154905082565b600080828154811061067157610670610fab565b5b9060005260206000209060020201600101549050919050565b6106926109c7565b6000806000815481106106a8576106a7610fab565b5b90600052602060002090600202016040518060400160405290816000820180546106d190611080565b80601f01602080910402602001604051908101604052809291908181526020018280546106fd90611080565b801561074a5780601f1061071f5761010080835404028352916020019161074a565b820191906000526020600020905b81548152906001019060200180831161072d57829003601f168201915b5050505050815260200160018201548152505090506000600190505b6000805490508110156108835781602001516000828154811061078c5761078b610fab565b5b906000526020600020906002020160010154111561087057600081815481106107b8576107b7610fab565b5b90600052602060002090600202016040518060400160405290816000820180546107e190611080565b80601f016020809104026020016040519081016040528092919081815260200182805461080d90611080565b801561085a5780601f1061082f5761010080835404028352916020019161085a565b820191906000526020600020905b81548152906001019060200180831161083d57829003601f168201915b5050505050815260200160018201548152505091505b808061087b90611009565b915050610766565b508091505090565b6060600082815481106108a1576108a0610fab565b5b906000526020600020906002020160000180546108bd90611080565b80601f01602080910402602001604051908101604052809291908181526020018280546108e990611080565b80156109365780601f1061090b57610100808354040283529160200191610936565b820191906000526020600020905b81548152906001019060200180831161091957829003601f168201915b50505050509050919050565b6000806000905060005b60008054905081101561099f576000818154811061096d5761096c610fab565b5b9060005260206000209060020201600101548261098a91906110e0565b9150808061099790611009565b91505061094c565b508091505090565b60016020528060005260406000206000915054906101000a900460ff1681565b604051806040016040528060608152602001600081525090565b600080fd5b6000819050919050565b6109f9816109e6565b8114610a0457600080fd5b50565b600081359050610a16816109f0565b92915050565b600060208284031215610a3257610a316109e1565b5b6000610a4084828501610a07565b91505092915050565b600081519050919050565b600082825260208201905092915050565b6000819050602082019050919050565b600081519050919050565b600082825260208201905092915050565b60005b83811015610aaf578082015181840152602081019050610a94565b60008484015250505050565b6000601f19601f8301169050919050565b6000610ad782610a75565b610ae18185610a80565b9350610af1818560208601610a91565b610afa81610abb565b840191505092915050565b610b0e816109e6565b82525050565b60006040830160008301518482036000860152610b318282610acc565b9150506020830151610b466020860182610b05565b508091505092915050565b6000610b5d8383610b14565b905092915050565b6000602082019050919050565b6000610b7d82610a49565b610b878185610a54565b935083602082028501610b9985610a65565b8060005b85811015610bd55784840389528151610bb68582610b51565b9450610bc183610b65565b925060208a01995050600181019050610b9d565b50829750879550505050505092915050565b60006020820190508181036000830152610c018184610b72565b905092915050565b600081519050919050565b600082825260208201905092915050565b6000819050602082019050919050565b6000610c418383610acc565b905092915050565b6000602082019050919050565b6000610c6182610c09565b610c6b8185610c14565b935083602082028501610c7d85610c25565b8060005b85811015610cb95784840389528151610c9a8582610c35565b9450610ca583610c49565b925060208a01995050600181019050610c81565b50829750879550505050505092915050565b60006020820190508181036000830152610ce58184610c56565b905092915050565b600082825260208201905092915050565b6000610d0982610a75565b610d138185610ced565b9350610d23818560208601610a91565b610d2c81610abb565b840191505092915050565b610d40816109e6565b82525050565b60006040820190508181036000830152610d608185610cfe565b9050610d6f6020830184610d37565b9392505050565b6000602082019050610d8b6000830184610d37565b92915050565b60006040830160008301518482036000860152610dae8282610acc565b9150506020830151610dc36020860182610b05565b508091505092915050565b60006020820190508181036000830152610de88184610d91565b905092915050565b60006020820190508181036000830152610e0a8184610cfe565b905092915050565b600073ffffffffffffffffffffffffffffffffffffffff82169050919050565b6000610e3d82610e12565b9050919050565b610e4d81610e32565b8114610e5857600080fd5b50565b600081359050610e6a81610e44565b92915050565b600060208284031215610e8657610e856109e1565b5b6000610e9484828501610e5b565b91505092915050565b60008115159050919050565b610eb281610e9d565b82525050565b6000602082019050610ecd6000830184610ea9565b92915050565b7f596f75206861766520616c726561647920766f74656400000000000000000000600082015250565b6000610f09601683610ced565b9150610f1482610ed3565b602082019050919050565b60006020820190508181036000830152610f3881610efc565b9050919050565b7f496e76616c6964206f7074696f6e20696e646578000000000000000000000000600082015250565b6000610f75601483610ced565b9150610f8082610f3f565b602082019050919050565b60006020820190508181036000830152610fa481610f68565b9050919050565b7f4e487b7100000000000000000000000000000000000000000000000000000000600052603260045260246000fd5b7f4e487b7100000000000000000000000000000000000000000000000000000000600052601160045260246000fd5b6000611014826109e6565b91507fffffffffffffffffffffffffffffffffffffffffffffffffffffffffffffffff820361104657611045610fda565b5b600182019050919050565b7f4e487b7100000000000000000000000000000000000000000000000000000000600052602260045260246000fd5b6000600282049050600182168061109857607f821691505b6020821081036110ab576110aa611051565b5b50919050565b7f4e487b7100000000000000000000000000000000000000000000000000000000600052604160045260246000fd5b60006110eb826109e6565b91506110f6836109e6565b925082820190508082111561110e5761110d610fda565b5b9291505056fea26469706673582212203af2c3b1ee55518bf217144464318990f38cc18b08293aeb81de29e4c98fcec464736f6c63430008120033",
  "linkReferences": {},
  "deployedLinkReferences": {}
}