{
  "_format": "hh-sol-artifact-1",
  "contractName": "Voting",
  "sourceName": "contracts/Voting.sol",
  "abi": [
    {
      "inputs": [
        {
          "internalType": "string[]",
          "name": "optionNames",
          "type": "string[]"
        },
        {
          "internalType": "uint256",
          "name": "_expiryDate",
          "type": "uint256"
        }
      ],
      "stateMutability": "nonpayable",
      "type": "constructor"
    },
    {
      "inputs": [],
      "name": "expiryDate",
      "outputs": [
        {
          "internalType": "uint256",
          "name": "",
          "type": "uint256"
        }
      ],
      "stateMutability": "view",
      "type": "function"
    },
    {
      "inputs": [],
      "name": "getOptions",
      "outputs": [
        {
          "components": [
            {
              "internalType": "string",
              "name": "name",
              "type": "string"
            },
            {
              "internalType": "uint256",
              "name": "count",
              "type": "uint256"
            }
          ],
          "internalType": "struct Voting.Option[]",
          "name": "",
          "type": "tuple[]"
        }
      ],
      "stateMutability": "view",
      "type": "function"
    },
    {
      "inputs": [],
      "name": "getTotalVotes",
      "outputs": [
        {
          "internalType": "uint256",
          "name": "",
          "type": "uint256"
        }
      ],
      "stateMutability": "view",
      "type": "function"
    },
    {
      "inputs": [],
      "name": "getWinningOption",
      "outputs": [
        {
          "components": [
            {
              "internalType": "string",
              "name": "name",
              "type": "string"
            },
            {
              "internalType": "uint256",
              "name": "count",
              "type": "uint256"
            }
          ],
          "internalType": "struct Voting.Option",
          "name": "",
          "type": "tuple"
        }
      ],
      "stateMutability": "view",
      "type": "function"
    },
    {
      "inputs": [
        {
          "internalType": "uint256",
          "name": "",
          "type": "uint256"
        }
      ],
      "name": "options",
      "outputs": [
        {
          "internalType": "string",
          "name": "name",
          "type": "string"
        },
        {
          "internalType": "uint256",
          "name": "count",
          "type": "uint256"
        }
      ],
      "stateMutability": "view",
      "type": "function"
    },
    {
      "inputs": [
        {
          "internalType": "uint256",
          "name": "optionIndex",
          "type": "uint256"
        }
      ],
      "name": "vote",
      "outputs": [],
      "stateMutability": "nonpayable",
      "type": "function"
    },
    {
      "inputs": [
        {
          "internalType": "address",
          "name": "",
          "type": "address"
        }
      ],
      "name": "voters",
      "outputs": [
        {
          "internalType": "bool",
          "name": "",
          "type": "bool"
        }
      ],
      "stateMutability": "view",
      "type": "function"
    }
  ],
  "bytecode": "0x60806040523480156200001157600080fd5b5060405162001620380380620016208339818101604052810190620000379190620003b6565b60005b8251811015620000dc57600060405180604001604052808584815181106200006757620000666200041c565b5b60200260200101518152602001600081525090806001815401808255809150506001900390600052602060002090600202016000909190919091506000820151816000019081620000b991906200068c565b506020820151816001015550508080620000d390620007a2565b9150506200003a565b50806002819055505050620007ef565b6000604051905090565b600080fd5b600080fd5b600080fd5b6000601f19601f8301169050919050565b7f4e487b7100000000000000000000000000000000000000000000000000000000600052604160045260246000fd5b620001508262000105565b810181811067ffffffffffffffff8211171562000172576200017162000116565b5b80604052505050565b600062000187620000ec565b905062000195828262000145565b919050565b600067ffffffffffffffff821115620001b857620001b762000116565b5b602082029050602081019050919050565b600080fd5b600080fd5b600067ffffffffffffffff821115620001f157620001f062000116565b5b620001fc8262000105565b9050602081019050919050565b60005b83811015620002295780820151818401526020810190506200020c565b60008484015250505050565b60006200024c6200024684620001d3565b6200017b565b9050828152602081018484840111156200026b576200026a620001ce565b5b6200027884828562000209565b509392505050565b600082601f83011262000298576200029762000100565b5b8151620002aa84826020860162000235565b91505092915050565b6000620002ca620002c4846200019a565b6200017b565b90508083825260208201905060208402830185811115620002f057620002ef620001c9565b5b835b818110156200033e57805167ffffffffffffffff81111562000319576200031862000100565b5b80860162000328898262000280565b85526020850194505050602081019050620002f2565b5050509392505050565b600082601f83011262000360576200035f62000100565b5b815162000372848260208601620002b3565b91505092915050565b6000819050919050565b62000390816200037b565b81146200039c57600080fd5b50565b600081519050620003b08162000385565b92915050565b60008060408385031215620003d057620003cf620000f6565b5b600083015167ffffffffffffffff811115620003f157620003f0620000fb565b5b620003ff8582860162000348565b925050602062000412858286016200039f565b9150509250929050565b7f4e487b7100000000000000000000000000000000000000000000000000000000600052603260045260246000fd5b600081519050919050565b7f4e487b7100000000000000000000000000000000000000000000000000000000600052602260045260246000fd5b600060028204905060018216806200049e57607f821691505b602082108103620004b457620004b362000456565b5b50919050565b60008190508160005260206000209050919050565b60006020601f8301049050919050565b600082821b905092915050565b6000600883026200051e7fffffffffffffffffffffffffffffffffffffffffffffffffffffffffffffffff82620004df565b6200052a8683620004df565b95508019841693508086168417925050509392505050565b6000819050919050565b60006200056d6200056762000561846200037b565b62000542565b6200037b565b9050919050565b6000819050919050565b62000589836200054c565b620005a1620005988262000574565b848454620004ec565b825550505050565b600090565b620005b8620005a9565b620005c58184846200057e565b505050565b5b81811015620005ed57620005e1600082620005ae565b600181019050620005cb565b5050565b601f8211156200063c576200060681620004ba565b6200061184620004cf565b8101602085101562000621578190505b620006396200063085620004cf565b830182620005ca565b50505b505050565b600082821c905092915050565b6000620006616000198460080262000641565b1980831691505092915050565b60006200067c83836200064e565b9150826002028217905092915050565b62000697826200044b565b67ffffffffffffffff811115620006b357620006b262000116565b5b620006bf825462000485565b620006cc828285620005f1565b600060209050601f831160018114620007045760008415620006ef578287015190505b620006fb85826200066e565b8655506200076b565b601f1984166200071486620004ba565b60005b828110156200073e5784890151825560018201915060208501945060208101905062000717565b868310156200075e57848901516200075a601f8916826200064e565b8355505b6001600288020188555050505b505050505050565b7f4e487b7100000000000000000000000000000000000000000000000000000000600052601160045260246000fd5b6000620007af826200037b565b91507fffffffffffffffffffffffffffffffffffffffffffffffffffffffffffffffff8203620007e457620007e362000773565b5b600182019050919050565b610e2180620007ff6000396000f3fe608060405234801561001057600080fd5b506004361061007d5760003560e01c80637eeb45201161005b5780637eeb4520146100ed5780639a0e7d661461010b578063a3ec138d14610129578063cc2ee196146101595761007d565b80630121b93f14610082578063409e22051461009e578063516dde43146100cf575b600080fd5b61009c600480360381019061009791906107bc565b610177565b005b6100b860048036038101906100b391906107bc565b610324565b6040516100c6929190610888565b60405180910390f35b6100d76103e0565b6040516100e491906108b8565b60405180910390f35b6100f56103e6565b6040516101029190610969565b60405180910390f35b6101136105e7565b60405161012091906108b8565b60405180910390f35b610143600480360381019061013e91906109e9565b61064c565b6040516101509190610a31565b60405180910390f35b61016161066c565b60405161016e9190610b4b565b60405180910390f35b60025442106101bb576040517f08c379a00000000000000000000000000000000000000000000000000000000081526004016101b290610bb9565b60405180910390fd5b600160003373ffffffffffffffffffffffffffffffffffffffff1673ffffffffffffffffffffffffffffffffffffffff16815260200190815260200160002060009054906101000a900460ff1615610248576040517f08c379a000000000000000000000000000000000000000000000000000000000815260040161023f90610c25565b60405180910390fd5b600080549050811061028f576040517f08c379a000000000000000000000000000000000000000000000000000000000815260040161028690610c91565b60405180910390fd5b600081815481106102a3576102a2610cb1565b5b906000526020600020906002020160010160008154809291906102c590610d0f565b919050555060018060003373ffffffffffffffffffffffffffffffffffffffff1673ffffffffffffffffffffffffffffffffffffffff16815260200190815260200160002060006101000a81548160ff02191690831515021790555050565b6000818154811061033457600080fd5b906000526020600020906002020160009150905080600001805461035790610d86565b80601f016020809104026020016040519081016040528092919081815260200182805461038390610d86565b80156103d05780601f106103a5576101008083540402835291602001916103d0565b820191906000526020600020905b8154815290600101906020018083116103b357829003601f168201915b5050505050908060010154905082565b60025481565b6103ee610767565b60008060008154811061040457610403610cb1565b5b906000526020600020906002020160405180604001604052908160008201805461042d90610d86565b80601f016020809104026020016040519081016040528092919081815260200182805461045990610d86565b80156104a65780601f1061047b576101008083540402835291602001916104a6565b820191906000526020600020905b81548152906001019060200180831161048957829003601f168201915b5050505050815260200160018201548152505090506000600190505b6000805490508110156105df578160200151600082815481106104e8576104e7610cb1565b5b90600052602060002090600202016001015411156105cc576000818154811061051457610513610cb1565b5b906000526020600020906002020160405180604001604052908160008201805461053d90610d86565b80601f016020809104026020016040519081016040528092919081815260200182805461056990610d86565b80156105b65780601f1061058b576101008083540402835291602001916105b6565b820191906000526020600020905b81548152906001019060200180831161059957829003601f168201915b5050505050815260200160018201548152505091505b80806105d790610d0f565b9150506104c2565b508091505090565b6000806000905060005b600080549050811015610644576000818154811061061257610611610cb1565b5b9060005260206000209060020201600101548261062f9190610db7565b9150808061063c90610d0f565b9150506105f1565b508091505090565b60016020528060005260406000206000915054906101000a900460ff1681565b60606000805480602002602001604051908101604052809291908181526020016000905b8282101561075e57838290600052602060002090600202016040518060400160405290816000820180546106c390610d86565b80601f01602080910402602001604051908101604052809291908181526020018280546106ef90610d86565b801561073c5780601f106107115761010080835404028352916020019161073c565b820191906000526020600020905b81548152906001019060200180831161071f57829003601f168201915b5050505050815260200160018201548152505081526020019060010190610690565b50505050905090565b604051806040016040528060608152602001600081525090565b600080fd5b6000819050919050565b61079981610786565b81146107a457600080fd5b50565b6000813590506107b681610790565b92915050565b6000602082840312156107d2576107d1610781565b5b60006107e0848285016107a7565b91505092915050565b600081519050919050565b600082825260208201905092915050565b60005b83811015610823578082015181840152602081019050610808565b60008484015250505050565b6000601f19601f8301169050919050565b600061084b826107e9565b61085581856107f4565b9350610865818560208601610805565b61086e8161082f565b840191505092915050565b61088281610786565b82525050565b600060408201905081810360008301526108a28185610840565b90506108b16020830184610879565b9392505050565b60006020820190506108cd6000830184610879565b92915050565b600082825260208201905092915050565b60006108ef826107e9565b6108f981856108d3565b9350610909818560208601610805565b6109128161082f565b840191505092915050565b61092681610786565b82525050565b6000604083016000830151848203600086015261094982826108e4565b915050602083015161095e602086018261091d565b508091505092915050565b60006020820190508181036000830152610983818461092c565b905092915050565b600073ffffffffffffffffffffffffffffffffffffffff82169050919050565b60006109b68261098b565b9050919050565b6109c6816109ab565b81146109d157600080fd5b50565b6000813590506109e3816109bd565b92915050565b6000602082840312156109ff576109fe610781565b5b6000610a0d848285016109d4565b91505092915050565b60008115159050919050565b610a2b81610a16565b82525050565b6000602082019050610a466000830184610a22565b92915050565b600081519050919050565b600082825260208201905092915050565b6000819050602082019050919050565b60006040830160008301518482036000860152610a9582826108e4565b9150506020830151610aaa602086018261091d565b508091505092915050565b6000610ac18383610a78565b905092915050565b6000602082019050919050565b6000610ae182610a4c565b610aeb8185610a57565b935083602082028501610afd85610a68565b8060005b85811015610b395784840389528151610b1a8582610ab5565b9450610b2583610ac9565b925060208a01995050600181019050610b01565b50829750879550505050505092915050565b60006020820190508181036000830152610b658184610ad6565b905092915050565b7f566f74696e672068617320657870697265640000000000000000000000000000600082015250565b6000610ba36012836107f4565b9150610bae82610b6d565b602082019050919050565b60006020820190508181036000830152610bd281610b96565b9050919050565b7f596f75206861766520616c726561647920766f74656400000000000000000000600082015250565b6000610c0f6016836107f4565b9150610c1a82610bd9565b602082019050919050565b60006020820190508181036000830152610c3e81610c02565b9050919050565b7f496e76616c6964206f7074696f6e20696e646578000000000000000000000000600082015250565b6000610c7b6014836107f4565b9150610c8682610c45565b602082019050919050565b60006020820190508181036000830152610caa81610c6e565b9050919050565b7f4e487b7100000000000000000000000000000000000000000000000000000000600052603260045260246000fd5b7f4e487b7100000000000000000000000000000000000000000000000000000000600052601160045260246000fd5b6000610d1a82610786565b91507fffffffffffffffffffffffffffffffffffffffffffffffffffffffffffffffff8203610d4c57610d4b610ce0565b5b600182019050919050565b7f4e487b7100000000000000000000000000000000000000000000000000000000600052602260045260246000fd5b60006002820490506001821680610d9e57607f821691505b602082108103610db157610db0610d57565b5b50919050565b6000610dc282610786565b9150610dcd83610786565b9250828201905080821115610de557610de4610ce0565b5b9291505056fea26469706673582212201b0e4ee64d8fd298935c2bc33fdf70b16f4a6d66dec4b6d618eb909ac6e3417964736f6c63430008120033",
  "linkReferences": {},
  "deployedLinkReferences": {}
}