{
  "_format": "hh-sol-artifact-1",
  "contractName": "Voting",
  "sourceName": "contracts/Voting.sol",
  "abi": [
    {
      "inputs": [
        {
          "internalType": "string[]",
          "name": "optionNames",
          "type": "string[]"
        }
      ],
      "stateMutability": "nonpayable",
      "type": "constructor"
    },
    {
      "inputs": [],
      "name": "getOptions",
      "outputs": [
        {
          "components": [
            {
              "internalType": "string",
              "name": "name",
              "type": "string"
            },
            {
              "internalType": "uint256",
              "name": "count",
              "type": "uint256"
            }
          ],
          "internalType": "struct Voting.Option[]",
          "name": "",
          "type": "tuple[]"
        }
      ],
      "stateMutability": "view",
      "type": "function"
    },
    {
      "inputs": [],
      "name": "getTotalVotes",
      "outputs": [
        {
          "internalType": "uint256",
          "name": "",
          "type": "uint256"
        }
      ],
      "stateMutability": "view",
      "type": "function"
    },
    {
      "inputs": [],
      "name": "getWinningOption",
      "outputs": [
        {
          "components": [
            {
              "internalType": "string",
              "name": "name",
              "type": "string"
            },
            {
              "internalType": "uint256",
              "name": "count",
              "type": "uint256"
            }
          ],
          "internalType": "struct Voting.Option",
          "name": "",
          "type": "tuple"
        }
      ],
      "stateMutability": "view",
      "type": "function"
    },
    {
      "inputs": [
        {
          "internalType": "uint256",
          "name": "",
          "type": "uint256"
        }
      ],
      "name": "options",
      "outputs": [
        {
          "internalType": "string",
          "name": "name",
          "type": "string"
        },
        {
          "internalType": "uint256",
          "name": "count",
          "type": "uint256"
        }
      ],
      "stateMutability": "view",
      "type": "function"
    },
    {
      "inputs": [
        {
          "internalType": "uint256",
          "name": "optionIndex",
          "type": "uint256"
        }
      ],
      "name": "vote",
      "outputs": [],
      "stateMutability": "nonpayable",
      "type": "function"
    },
    {
      "inputs": [
        {
          "internalType": "address",
          "name": "",
          "type": "address"
        }
      ],
      "name": "voters",
      "outputs": [
        {
          "internalType": "bool",
          "name": "",
          "type": "bool"
        }
      ],
      "stateMutability": "view",
      "type": "function"
    }
  ],
  "bytecode": "0x60806040523480156200001157600080fd5b50604051620014e3380380620014e3833981810160405281019062000037919062000373565b60005b8151811015620000dc5760006040518060400160405280848481518110620000675762000066620003c4565b5b60200260200101518152602001600081525090806001815401808255809150506001900390600052602060002090600202016000909190919091506000820151816000019081620000b991906200063e565b506020820151816001015550508080620000d39062000754565b9150506200003a565b5050620007a1565b6000604051905090565b600080fd5b600080fd5b600080fd5b6000601f19601f8301169050919050565b7f4e487b7100000000000000000000000000000000000000000000000000000000600052604160045260246000fd5b6200014882620000fd565b810181811067ffffffffffffffff821117156200016a57620001696200010e565b5b80604052505050565b60006200017f620000e4565b90506200018d82826200013d565b919050565b600067ffffffffffffffff821115620001b057620001af6200010e565b5b602082029050602081019050919050565b600080fd5b600080fd5b600067ffffffffffffffff821115620001e957620001e86200010e565b5b620001f482620000fd565b9050602081019050919050565b60005b838110156200022157808201518184015260208101905062000204565b60008484015250505050565b6000620002446200023e84620001cb565b62000173565b905082815260208101848484011115620002635762000262620001c6565b5b6200027084828562000201565b509392505050565b600082601f83011262000290576200028f620000f8565b5b8151620002a28482602086016200022d565b91505092915050565b6000620002c2620002bc8462000192565b62000173565b90508083825260208201905060208402830185811115620002e857620002e7620001c1565b5b835b818110156200033657805167ffffffffffffffff811115620003115762000310620000f8565b5b80860162000320898262000278565b85526020850194505050602081019050620002ea565b5050509392505050565b600082601f830112620003585762000357620000f8565b5b81516200036a848260208601620002ab565b91505092915050565b6000602082840312156200038c576200038b620000ee565b5b600082015167ffffffffffffffff811115620003ad57620003ac620000f3565b5b620003bb8482850162000340565b91505092915050565b7f4e487b7100000000000000000000000000000000000000000000000000000000600052603260045260246000fd5b600081519050919050565b7f4e487b7100000000000000000000000000000000000000000000000000000000600052602260045260246000fd5b600060028204905060018216806200044657607f821691505b6020821081036200045c576200045b620003fe565b5b50919050565b60008190508160005260206000209050919050565b60006020601f8301049050919050565b600082821b905092915050565b600060088302620004c67fffffffffffffffffffffffffffffffffffffffffffffffffffffffffffffffff8262000487565b620004d2868362000487565b95508019841693508086168417925050509392505050565b6000819050919050565b6000819050919050565b60006200051f620005196200051384620004ea565b620004f4565b620004ea565b9050919050565b6000819050919050565b6200053b83620004fe565b620005536200054a8262000526565b84845462000494565b825550505050565b600090565b6200056a6200055b565b6200057781848462000530565b505050565b5b818110156200059f576200059360008262000560565b6001810190506200057d565b5050565b601f821115620005ee57620005b88162000462565b620005c38462000477565b81016020851015620005d3578190505b620005eb620005e28562000477565b8301826200057c565b50505b505050565b600082821c905092915050565b60006200061360001984600802620005f3565b1980831691505092915050565b60006200062e838362000600565b9150826002028217905092915050565b6200064982620003f3565b67ffffffffffffffff8111156200066557620006646200010e565b5b6200067182546200042d565b6200067e828285620005a3565b600060209050601f831160018114620006b65760008415620006a1578287015190505b620006ad858262000620565b8655506200071d565b601f198416620006c68662000462565b60005b82811015620006f057848901518255600182019150602085019450602081019050620006c9565b868310156200071057848901516200070c601f89168262000600565b8355505b6001600288020188555050505b505050505050565b7f4e487b7100000000000000000000000000000000000000000000000000000000600052601160045260246000fd5b60006200076182620004ea565b91507fffffffffffffffffffffffffffffffffffffffffffffffffffffffffffffffff820362000796576200079562000725565b5b600182019050919050565b610d3280620007b16000396000f3fe608060405234801561001057600080fd5b50600436106100625760003560e01c80630121b93f14610067578063409e2205146100835780637eeb4520146100b45780639a0e7d66146100d2578063a3ec138d146100f0578063cc2ee19614610120575b600080fd5b610081600480360381019061007c9190610739565b61013e565b005b61009d60048036038101906100989190610739565b6102a7565b6040516100ab929190610805565b60405180910390f35b6100bc610363565b6040516100c991906108cb565b60405180910390f35b6100da610564565b6040516100e791906108ed565b60405180910390f35b61010a60048036038101906101059190610966565b6105c9565b60405161011791906109ae565b60405180910390f35b6101286105e9565b6040516101359190610ac8565b60405180910390f35b600160003373ffffffffffffffffffffffffffffffffffffffff1673ffffffffffffffffffffffffffffffffffffffff16815260200190815260200160002060009054906101000a900460ff16156101cb576040517f08c379a00000000000000000000000000000000000000000000000000000000081526004016101c290610b36565b60405180910390fd5b6000805490508110610212576040517f08c379a000000000000000000000000000000000000000000000000000000000815260040161020990610ba2565b60405180910390fd5b6000818154811061022657610225610bc2565b5b9060005260206000209060020201600101600081548092919061024890610c20565b919050555060018060003373ffffffffffffffffffffffffffffffffffffffff1673ffffffffffffffffffffffffffffffffffffffff16815260200190815260200160002060006101000a81548160ff02191690831515021790555050565b600081815481106102b757600080fd5b90600052602060002090600202016000915090508060000180546102da90610c97565b80601f016020809104026020016040519081016040528092919081815260200182805461030690610c97565b80156103535780601f1061032857610100808354040283529160200191610353565b820191906000526020600020905b81548152906001019060200180831161033657829003601f168201915b5050505050908060010154905082565b61036b6106e4565b60008060008154811061038157610380610bc2565b5b90600052602060002090600202016040518060400160405290816000820180546103aa90610c97565b80601f01602080910402602001604051908101604052809291908181526020018280546103d690610c97565b80156104235780601f106103f857610100808354040283529160200191610423565b820191906000526020600020905b81548152906001019060200180831161040657829003601f168201915b5050505050815260200160018201548152505090506000600190505b60008054905081101561055c5781602001516000828154811061046557610464610bc2565b5b9060005260206000209060020201600101541115610549576000818154811061049157610490610bc2565b5b90600052602060002090600202016040518060400160405290816000820180546104ba90610c97565b80601f01602080910402602001604051908101604052809291908181526020018280546104e690610c97565b80156105335780601f1061050857610100808354040283529160200191610533565b820191906000526020600020905b81548152906001019060200180831161051657829003601f168201915b5050505050815260200160018201548152505091505b808061055490610c20565b91505061043f565b508091505090565b6000806000905060005b6000805490508110156105c1576000818154811061058f5761058e610bc2565b5b906000526020600020906002020160010154826105ac9190610cc8565b915080806105b990610c20565b91505061056e565b508091505090565b60016020528060005260406000206000915054906101000a900460ff1681565b60606000805480602002602001604051908101604052809291908181526020016000905b828210156106db578382906000526020600020906002020160405180604001604052908160008201805461064090610c97565b80601f016020809104026020016040519081016040528092919081815260200182805461066c90610c97565b80156106b95780601f1061068e576101008083540402835291602001916106b9565b820191906000526020600020905b81548152906001019060200180831161069c57829003601f168201915b505050505081526020016001820154815250508152602001906001019061060d565b50505050905090565b604051806040016040528060608152602001600081525090565b600080fd5b6000819050919050565b61071681610703565b811461072157600080fd5b50565b6000813590506107338161070d565b92915050565b60006020828403121561074f5761074e6106fe565b5b600061075d84828501610724565b91505092915050565b600081519050919050565b600082825260208201905092915050565b60005b838110156107a0578082015181840152602081019050610785565b60008484015250505050565b6000601f19601f8301169050919050565b60006107c882610766565b6107d28185610771565b93506107e2818560208601610782565b6107eb816107ac565b840191505092915050565b6107ff81610703565b82525050565b6000604082019050818103600083015261081f81856107bd565b905061082e60208301846107f6565b9392505050565b600082825260208201905092915050565b600061085182610766565b61085b8185610835565b935061086b818560208601610782565b610874816107ac565b840191505092915050565b61088881610703565b82525050565b600060408301600083015184820360008601526108ab8282610846565b91505060208301516108c0602086018261087f565b508091505092915050565b600060208201905081810360008301526108e5818461088e565b905092915050565b600060208201905061090260008301846107f6565b92915050565b600073ffffffffffffffffffffffffffffffffffffffff82169050919050565b600061093382610908565b9050919050565b61094381610928565b811461094e57600080fd5b50565b6000813590506109608161093a565b92915050565b60006020828403121561097c5761097b6106fe565b5b600061098a84828501610951565b91505092915050565b60008115159050919050565b6109a881610993565b82525050565b60006020820190506109c3600083018461099f565b92915050565b600081519050919050565b600082825260208201905092915050565b6000819050602082019050919050565b60006040830160008301518482036000860152610a128282610846565b9150506020830151610a27602086018261087f565b508091505092915050565b6000610a3e83836109f5565b905092915050565b6000602082019050919050565b6000610a5e826109c9565b610a6881856109d4565b935083602082028501610a7a856109e5565b8060005b85811015610ab65784840389528151610a978582610a32565b9450610aa283610a46565b925060208a01995050600181019050610a7e565b50829750879550505050505092915050565b60006020820190508181036000830152610ae28184610a53565b905092915050565b7f596f75206861766520616c726561647920766f74656400000000000000000000600082015250565b6000610b20601683610771565b9150610b2b82610aea565b602082019050919050565b60006020820190508181036000830152610b4f81610b13565b9050919050565b7f496e76616c6964206f7074696f6e20696e646578000000000000000000000000600082015250565b6000610b8c601483610771565b9150610b9782610b56565b602082019050919050565b60006020820190508181036000830152610bbb81610b7f565b9050919050565b7f4e487b7100000000000000000000000000000000000000000000000000000000600052603260045260246000fd5b7f4e487b7100000000000000000000000000000000000000000000000000000000600052601160045260246000fd5b6000610c2b82610703565b91507fffffffffffffffffffffffffffffffffffffffffffffffffffffffffffffffff8203610c5d57610c5c610bf1565b5b600182019050919050565b7f4e487b7100000000000000000000000000000000000000000000000000000000600052602260045260246000fd5b60006002820490506001821680610caf57607f821691505b602082108103610cc257610cc1610c68565b5b50919050565b6000610cd382610703565b9150610cde83610703565b9250828201905080821115610cf657610cf5610bf1565b5b9291505056fea26469706673582212205c7e1c3936f9d0378589ca74d98ef5633e69ef7b683aa63320045f874a2fc50a64736f6c63430008120033",
  "linkReferences": {},
  "deployedLinkReferences": {}
}